{
  "contractName": "Betting",
  "abi": [
    {
      "inputs": [],
      "stateMutability": "nonpayable",
      "type": "constructor"
    },
    {
      "anonymous": false,
      "inputs": [
        {
          "indexed": true,
          "internalType": "address",
          "name": "from",
          "type": "address"
        },
        {
          "indexed": true,
          "internalType": "address",
          "name": "to",
          "type": "address"
        },
        {
          "indexed": false,
          "internalType": "uint256",
          "name": "tokens",
          "type": "uint256"
        }
      ],
      "name": "Transfer",
      "type": "event"
    },
    {
      "inputs": [
        {
          "internalType": "uint256",
          "name": "",
          "type": "uint256"
        }
      ],
      "name": "bet",
      "outputs": [
        {
          "internalType": "address",
          "name": "owner",
          "type": "address"
        },
        {
          "internalType": "uint256",
          "name": "betId",
          "type": "uint256"
        },
        {
          "internalType": "uint256",
          "name": "betAmount",
          "type": "uint256"
        },
        {
          "internalType": "uint256",
          "name": "numberOfPlayers",
          "type": "uint256"
        },
        {
          "internalType": "uint256",
          "name": "unlockDate",
          "type": "uint256"
        }
      ],
      "stateMutability": "view",
      "type": "function",
      "constant": true
    },
    {
      "inputs": [],
      "name": "decimals",
      "outputs": [
        {
          "internalType": "uint8",
          "name": "",
          "type": "uint8"
        }
      ],
      "stateMutability": "view",
      "type": "function",
      "constant": true
    },
    {
      "inputs": [],
      "name": "name",
      "outputs": [
        {
          "internalType": "string",
          "name": "",
          "type": "string"
        }
      ],
      "stateMutability": "view",
      "type": "function",
      "constant": true
    },
    {
      "inputs": [],
      "name": "symbol",
      "outputs": [
        {
          "internalType": "string",
          "name": "",
          "type": "string"
        }
      ],
      "stateMutability": "view",
      "type": "function",
      "constant": true
    },
    {
      "inputs": [
        {
          "internalType": "uint256",
          "name": "_betAmount",
          "type": "uint256"
        },
        {
          "internalType": "uint256",
          "name": "_lockedUntil",
          "type": "uint256"
        }
      ],
      "name": "createNewGame",
      "outputs": [
        {
          "internalType": "uint256",
          "name": "",
          "type": "uint256"
        }
      ],
      "stateMutability": "payable",
      "type": "function",
      "payable": true
    },
    {
      "inputs": [
        {
          "internalType": "address",
          "name": "tokenOwner",
          "type": "address"
        }
      ],
      "name": "balanceOf",
      "outputs": [
        {
          "internalType": "uint256",
          "name": "",
          "type": "uint256"
        }
      ],
      "stateMutability": "view",
      "type": "function",
      "constant": true
    },
    {
      "inputs": [
        {
          "internalType": "address",
          "name": "winner",
          "type": "address"
        },
        {
          "internalType": "uint256",
          "name": "winAmount",
          "type": "uint256"
        }
      ],
      "name": "withdrawal",
      "outputs": [
        {
          "internalType": "bool",
          "name": "",
          "type": "bool"
        }
      ],
      "stateMutability": "payable",
      "type": "function",
      "payable": true
    },
    {
      "inputs": [
        {
          "internalType": "uint256",
          "name": "betId",
          "type": "uint256"
        }
      ],
      "name": "transferToContract",
      "outputs": [
        {
          "internalType": "bool",
          "name": "",
          "type": "bool"
        }
      ],
      "stateMutability": "payable",
      "type": "function",
      "payable": true
    },
    {
      "inputs": [
        {
          "internalType": "uint256",
          "name": "betId",
          "type": "uint256"
        }
      ],
      "name": "acceptInvite",
      "outputs": [],
      "stateMutability": "payable",
      "type": "function",
      "payable": true
    },
    {
      "inputs": [
        {
          "internalType": "address[]",
          "name": "winners",
          "type": "address[]"
        },
        {
          "internalType": "uint256",
          "name": "betId",
          "type": "uint256"
        }
      ],
      "name": "payOut",
      "outputs": [],
      "stateMutability": "payable",
      "type": "function",
      "payable": true
    }
  ],
  "bytecode": "0x608060405234801561001057600080fd5b5060008060003073ffffffffffffffffffffffffffffffffffffffff1673ffffffffffffffffffffffffffffffffffffffff16815260200190815260200160002081905550610f7a806100646000396000f3fe6080604052600436106100915760003560e01c80637365870b116100595780637365870b146102e457806395d89b411461037b578063bf8e91761461040b578063d555d47314610439578063fddaaea61461047f57610091565b806306fdde031461009657806330bb305914610126578063313ce567146101e85780635a6b26ba1461021957806370a082311461027f575b600080fd5b3480156100a257600080fd5b506100ab6104cb565b6040518080602001828103825283818151815260200191508051906020019080838360005b838110156100eb5780820151818401526020810190506100d0565b50505050905090810190601f1680156101185780820380516001836020036101000a031916815260200191505b509250505060405180910390f35b6101e66004803603604081101561013c57600080fd5b810190808035906020019064010000000081111561015957600080fd5b82018360208201111561016b57600080fd5b8035906020019184602083028401116401000000008311171561018d57600080fd5b919080806020026020016040519081016040528093929190818152602001838360200280828437600081840152601f19601f82011690508083019250505050505050919291929080359060200190929190505050610504565b005b3480156101f457600080fd5b506101fd6106fa565b604051808260ff1660ff16815260200191505060405180910390f35b6102656004803603604081101561022f57600080fd5b81019080803573ffffffffffffffffffffffffffffffffffffffff169060200190929190803590602001909291905050506106ff565b604051808215151515815260200191505060405180910390f35b34801561028b57600080fd5b506102ce600480360360208110156102a257600080fd5b81019080803573ffffffffffffffffffffffffffffffffffffffff1690602001909291905050506108c8565b6040518082815260200191505060405180910390f35b3480156102f057600080fd5b5061031d6004803603602081101561030757600080fd5b8101908080359060200190929190505050610910565b604051808673ffffffffffffffffffffffffffffffffffffffff1673ffffffffffffffffffffffffffffffffffffffff1681526020018581526020018481526020018381526020018281526020019550505050505060405180910390f35b34801561038757600080fd5b50610390610966565b6040518080602001828103825283818151815260200191508051906020019080838360005b838110156103d05780820151818401526020810190506103b5565b50505050905090810190601f1680156103fd5780820380516001836020036101000a031916815260200191505b509250505060405180910390f35b6104376004803603602081101561042157600080fd5b810190808035906020019092919050505061099f565b005b6104656004803603602081101561044f57600080fd5b8101908080359060200190929190505050610b1a565b604051808215151515815260200191505060405180910390f35b6104b56004803603604081101561049557600080fd5b810190808035906020019092919080359060200190929190505050610be7565b6040518082815260200191505060405180910390f35b6040518060400160405280600a81526020017f455243323042617369630000000000000000000000000000000000000000000081525081565b6001600082815260200190815260200160002060040154421015610590576040517f08c379a00000000000000000000000000000000000000000000000000000000081526004018080602001828103825260108152602001807f46756e647320617265206c6f636b65640000000000000000000000000000000081525060200191505060405180910390fd5b3373ffffffffffffffffffffffffffffffffffffffff166001600083815260200190815260200160002060000160009054906101000a900473ffffffffffffffffffffffffffffffffffffffff1673ffffffffffffffffffffffffffffffffffffffff1614610667576040517f08c379a000000000000000000000000000000000000000000000000000000000815260040180806020018281038252601d8152602001807f4f776e6572206e6565647320746f20656e61626c65207061796d656e7400000081525060200191505060405180910390fd5b60006106a860016000848152602001908152602001600020600301546001600085815260200190815260200160002060020154610d0b90919063ffffffff16565b90506000835182816106b657fe5b04905060008090505b84518110156106f3576106e58582815181106106d757fe5b6020026020010151836106ff565b5080806001019150506106bf565b5050505050565b601281565b600061070a306108c8565b82111561077f576040517f08c379a00000000000000000000000000000000000000000000000000000000081526004018080602001828103825260128152602001807f496e73756666696369656e742066756e6473000000000000000000000000000081525060200191505060405180910390fd5b6107d0826000803073ffffffffffffffffffffffffffffffffffffffff1673ffffffffffffffffffffffffffffffffffffffff16815260200190815260200160002054610d9190919063ffffffff16565b6000803073ffffffffffffffffffffffffffffffffffffffff1673ffffffffffffffffffffffffffffffffffffffff168152602001908152602001600020819055508273ffffffffffffffffffffffffffffffffffffffff166108fc839081150290604051600060405180830381858888f19350505050158015610858573d6000803e3d6000fd5b503073ffffffffffffffffffffffffffffffffffffffff168373ffffffffffffffffffffffffffffffffffffffff167fddf252ad1be2c89b69c2b068fc378daa952ba7f163c4a11628f55a4df523b3ef846040518082815260200191505060405180910390a36001905092915050565b60008060008373ffffffffffffffffffffffffffffffffffffffff1673ffffffffffffffffffffffffffffffffffffffff168152602001908152602001600020549050919050565b60016020528060005260406000206000915090508060000160009054906101000a900473ffffffffffffffffffffffffffffffffffffffff16908060010154908060020154908060030154908060040154905085565b6040518060400160405280600381526020017f425343000000000000000000000000000000000000000000000000000000000081525081565b3460016000838152602001908152602001600020600201541115610a2b576040517f08c379a00000000000000000000000000000000000000000000000000000000081526004018080602001828103825260128152602001807f496e73756666696369656e742066756e6473000000000000000000000000000081525060200191505060405180910390fd5b610a54600180600084815260200190815260200160002060030154610ddb90919063ffffffff16565b6001600083815260200190815260200160002060030181905550610ad560016000838152602001908152602001600020600201546000803073ffffffffffffffffffffffffffffffffffffffff1673ffffffffffffffffffffffffffffffffffffffff16815260200190815260200160002054610ddb90919063ffffffff16565b6000803073ffffffffffffffffffffffffffffffffffffffff1673ffffffffffffffffffffffffffffffffffffffff1681526020019081526020016000208190555050565b60003073ffffffffffffffffffffffffffffffffffffffff166108fc349081150290604051600060405180830381858888f19350505050158015610b62573d6000803e3d6000fd5b503073ffffffffffffffffffffffffffffffffffffffff163373ffffffffffffffffffffffffffffffffffffffff167fddf252ad1be2c89b69c2b068fc378daa952ba7f163c4a11628f55a4df523b3ef60016000868152602001908152602001600020600201546040518082815260200191505060405180910390a360019050919050565b600080444260405160200180838152602001828152602001925050506040516020818303038152906040528051906020012060001c9050600068056bc75e2d631000008281610c3257fe5b069050846001600083815260200190815260200160002060020181905550336001600083815260200190815260200160002060000160006101000a81548173ffffffffffffffffffffffffffffffffffffffff021916908373ffffffffffffffffffffffffffffffffffffffff16021790555080600160008381526020019081526020016000206001018190555083600160008381526020019081526020016000206004018190555060006001600083815260200190815260200160002060030181905550610d008161099f565b809250505092915050565b600080831415610d1e5760009050610d8b565b6000828402905082848281610d2f57fe5b0414610d86576040517f08c379a0000000000000000000000000000000000000000000000000000000008152600401808060200182810382526021815260200180610f246021913960400191505060405180910390fd5b809150505b92915050565b6000610dd383836040518060400160405280601e81526020017f536166654d6174683a207375627472616374696f6e206f766572666c6f770000815250610e63565b905092915050565b600080828401905083811015610e59576040517f08c379a000000000000000000000000000000000000000000000000000000000815260040180806020018281038252601b8152602001807f536166654d6174683a206164646974696f6e206f766572666c6f77000000000081525060200191505060405180910390fd5b8091505092915050565b6000838311158290610f10576040517f08c379a00000000000000000000000000000000000000000000000000000000081526004018080602001828103825283818151815260200191508051906020019080838360005b83811015610ed5578082015181840152602081019050610eba565b50505050905090810190601f168015610f025780820380516001836020036101000a031916815260200191505b509250505060405180910390fd5b506000838503905080915050939250505056fe536166654d6174683a206d756c7469706c69636174696f6e206f766572666c6f77a264697066735822122024772c729949355ccae77809ba3768cb14c22c46b2538744580156c0fbe121a664736f6c634300060a0033",
  "immutableReferences": {},
  "source": "pragma solidity >=0.6.10;\nimport {SafeMath} from \"./../contracts/external/SafeMath.sol\";\n\ncontract Betting {\n    string public constant name = \"ERC20Basic\";\n    string public constant symbol = \"BSC\";\n    uint8 public constant decimals = 18;  \n\n    using SafeMath for uint256;\n    event Transfer(address indexed from, address indexed to, uint tokens);\n\n    struct Bet {\n        address owner;\n        uint betId;\n        uint256 betAmount;\n        uint256 numberOfPlayers;\n        uint unlockDate;\n    }\n    // Address of the player and => the balance \n    mapping(address => uint256) balances;\n    mapping(uint => Bet) public bet;\n    constructor() public {\n\t    balances[address(this)] = 0;\n    }\n\n    function createNewGame(uint _betAmount, uint _lockedUntil) public payable returns (uint) {\n        uint rand = uint(keccak256(abi.encodePacked(block.difficulty, block.timestamp)));\n        uint betId = uint(rand % (10 ** 20));\n        // while not betId\n        bet[betId].betAmount = _betAmount;\n        bet[betId].owner = msg.sender;\n        bet[betId].betId = betId;\n        bet[betId].unlockDate = _lockedUntil;\n        bet[betId].numberOfPlayers = 0;\n        acceptInvite(betId); \n        return (betId);\n    }\n\n    function balanceOf(address tokenOwner) public view returns (uint) {\n        return balances[tokenOwner];\n    }\n\n    function withdrawal(address  winner, uint256 winAmount) public payable returns (bool) {\n        require(winAmount <= balanceOf(address(this)), \"Insufficient funds\");\n\n        balances[address(this)] = balances[address(this)].sub(winAmount);\n        payable(winner).transfer(winAmount);\n        emit Transfer(winner, address(this), winAmount);\n        \n        return true;\n    }\n\n    function transferToContract(uint betId) public payable returns (bool) {\n        payable(address(this)).transfer(msg.value);\n        emit Transfer(msg.sender, address(this), bet[betId].betAmount);\n        return true;\n    }\n\n    function acceptInvite(uint betId) public payable {\n        require(bet[betId].betAmount <= msg.value, \"Insufficient funds\");\n        bet[betId].numberOfPlayers = bet[betId].numberOfPlayers.add(1);\n        balances[address(this)] = balances[address(this)].add(bet[betId].betAmount);\n    }\n\n\n    function payOut(address[] memory winners, uint betId) public payable {\n        require(block.timestamp >= bet[betId].unlockDate, \"Funds are locked\");\n        require(bet[betId].owner == msg.sender, \"Owner needs to enable payment\");\n\n        uint256 totalAmount = bet[betId].betAmount.mul(bet[betId].numberOfPlayers);\n        uint256 winningAmountPerPlayer = totalAmount/winners.length;\n        for(uint256 i = 0; i < winners.length; i++){\n            withdrawal(winners[i], winningAmountPerPlayer);\n        }\n    }\n\n}",
  "sourcePath": "/Users/saksijas/Repos/Other/betting-app/fpl-contract/contracts/Betting.sol",
  "compiler": {
    "name": "solc",
    "version": "0.6.10+commit.00c0fcaf.Emscripten.clang"
  },
  "schemaVersion": "3.3.1",
  "updatedAt": "2020-11-11T07:34:34.531Z",
  "networkType": "ethereum",
  "devdoc": {
    "methods": {}
  },
  "userdoc": {
    "methods": {}
  }
}