{
  "contractName": "Escrow",
  "abi": [
    {
      "inputs": [
        {
          "internalType": "address",
          "name": "_buyer",
          "type": "address"
        },
        {
          "internalType": "address payable",
          "name": "_seller",
          "type": "address"
        }
      ],
      "stateMutability": "nonpayable",
      "type": "constructor"
    },
    {
      "inputs": [],
      "name": "buyer",
      "outputs": [
        {
          "internalType": "address",
          "name": "",
          "type": "address"
        }
      ],
      "stateMutability": "view",
      "type": "function"
    },
    {
      "inputs": [],
      "name": "currState",
      "outputs": [
        {
          "internalType": "enum Escrow.State",
          "name": "",
          "type": "uint8"
        }
      ],
      "stateMutability": "view",
      "type": "function"
    },
    {
      "inputs": [],
      "name": "seller",
      "outputs": [
        {
          "internalType": "address payable",
          "name": "",
          "type": "address"
        }
      ],
      "stateMutability": "view",
      "type": "function"
    },
    {
      "inputs": [],
      "name": "deposit",
      "outputs": [],
      "stateMutability": "payable",
      "type": "function"
    },
    {
      "inputs": [],
      "name": "confirmDelivery",
      "outputs": [],
      "stateMutability": "nonpayable",
      "type": "function"
    }
  ],
  "bytecode": "0x608060405234801561001057600080fd5b506040516106393803806106398339818101604052604081101561003357600080fd5b81019080805190602001909291908051906020019092919050505081600060016101000a81548173ffffffffffffffffffffffffffffffffffffffff021916908373ffffffffffffffffffffffffffffffffffffffff16021790555080600160006101000a81548173ffffffffffffffffffffffffffffffffffffffff021916908373ffffffffffffffffffffffffffffffffffffffff1602179055505050610558806100e16000396000f3fe60806040526004361061004a5760003560e01c806308551a531461004f5780635e10177b146100a65780637150d8ae146100bd578063afe0104314610114578063d0e30db01461014d575b600080fd5b34801561005b57600080fd5b50610064610157565b604051808273ffffffffffffffffffffffffffffffffffffffff1673ffffffffffffffffffffffffffffffffffffffff16815260200191505060405180910390f35b3480156100b257600080fd5b506100bb61017d565b005b3480156100c957600080fd5b506100d2610368565b604051808273ffffffffffffffffffffffffffffffffffffffff1673ffffffffffffffffffffffffffffffffffffffff16815260200191505060405180910390f35b34801561012057600080fd5b5061012961038e565b6040518082600281111561013957fe5b60ff16815260200191505060405180910390f35b6101556103a0565b005b600160009054906101000a900473ffffffffffffffffffffffffffffffffffffffff1681565b600060019054906101000a900473ffffffffffffffffffffffffffffffffffffffff1673ffffffffffffffffffffffffffffffffffffffff163373ffffffffffffffffffffffffffffffffffffffff1614610240576040517f08c379a000000000000000000000000000000000000000000000000000000000815260040180806020018281038252601f8152602001807f4f6e6c792062757965722063616e2063616c6c2074686973206d6574686f640081525060200191505060405180910390fd5b6001600281111561024d57fe5b6000809054906101000a900460ff16600281111561026757fe5b146102da576040517f08c379a00000000000000000000000000000000000000000000000000000000081526004018080602001828103825260178152602001807f43616e6e6f7420636f6e6669726d2064656c697665727900000000000000000081525060200191505060405180910390fd5b600160009054906101000a900473ffffffffffffffffffffffffffffffffffffffff1673ffffffffffffffffffffffffffffffffffffffff166108fc479081150290604051600060405180830381858888f19350505050158015610342573d6000803e3d6000fd5b5060026000806101000a81548160ff0219169083600281111561036157fe5b0217905550565b600060019054906101000a900473ffffffffffffffffffffffffffffffffffffffff1681565b6000809054906101000a900460ff1681565b600060019054906101000a900473ffffffffffffffffffffffffffffffffffffffff1673ffffffffffffffffffffffffffffffffffffffff163373ffffffffffffffffffffffffffffffffffffffff1614610463576040517f08c379a000000000000000000000000000000000000000000000000000000000815260040180806020018281038252601f8152602001807f4f6e6c792062757965722063616e2063616c6c2074686973206d6574686f640081525060200191505060405180910390fd5b6000600281111561047057fe5b6000809054906101000a900460ff16600281111561048a57fe5b146104fd576040517f08c379a000000000000000000000000000000000000000000000000000000000815260040180806020018281038252600c8152602001807f416c72656164792070616964000000000000000000000000000000000000000081525060200191505060405180910390fd5b60016000806101000a81548160ff0219169083600281111561051b57fe5b021790555056fea26469706673582212205cae9849d51ccc06a272d551d2c54cff3ed4961c51e3a1fdcda618ae458bc74964736f6c634300060a0033",
  "immutableReferences": {},
  "source": "pragma solidity >=0.6.0;\n\ncontract Escrow {\n    enum State { AWAITING_PAYMENT, AWAITING_DELIVERY, COMPLETE }\n    \n    State public currState;\n    \n    address public buyer;\n    address payable public seller;\n    \n    modifier onlyBuyer() {\n        require(msg.sender == buyer, \"Only buyer can call this method\");\n        _;\n    }\n    \n    constructor(address _buyer, address payable _seller) public {\n        buyer = _buyer;\n        seller = _seller;\n    }\n    \n    function deposit() onlyBuyer external payable {\n        require(currState == State.AWAITING_PAYMENT, \"Already paid\");\n        currState = State.AWAITING_DELIVERY;\n    }\n    \n    function confirmDelivery() onlyBuyer external {\n        require(currState == State.AWAITING_DELIVERY, \"Cannot confirm delivery\");\n        seller.transfer(address(this).balance);\n        currState = State.COMPLETE;\n    }\n}",
  "sourcePath": "/Users/saksijas/Repos/Other/betting-app/fpl-contract/contracts/Escrow.sol",
  "compiler": {
    "name": "solc",
    "version": "0.6.10+commit.00c0fcaf.Emscripten.clang"
  },
  "schemaVersion": "3.3.1",
  "updatedAt": "2020-11-11T07:34:17.560Z",
  "devdoc": {
    "methods": {}
  },
  "userdoc": {
    "methods": {}
  }
}